:100000002FC0000000000000000000000000000001
:1000100000000000000000000000000000000000E0
:1000200000000000000000000000000000000000D0
:1000300000000000000000000000000000000000C0
:1000400000000000000000000000000000000000B0
:1000500000000000000000000000000000000000A0
:100060000FEF10E004B90AD012D01AD022D02AD053
:1000700029D028D027D026D025D0F2CF34D033D0E5
:100080002DD02CD02BD01ED01DD01CD008952BD01D
:100090002AD029D023D022D015D014D013D008953F
:1000A0001DD01CD01BD01FD01ED00CD00BD00AD01E
:1000B000089514D013D017D016D015D003D002D085
:1000C00001D008953FEF4FEF5AE0320FF1F7420FA2
:1000D0000000D9F7520F0000C1F708950AD0F2DFEF
:1000E0000AD0F0DF089505D0EDDFECDF04D0EADFC1
:0A00F000089505B9089515B90895A3
:00000001FF
