:020000020000FC
:100000000FE710E02FEF04B90AD012D01AD022D097
:100010002AD029D028D027D026D025D0F1CF34D04F
:1000200033D02DD02CD02BD01ED01DD01CD0089575
:100030002BD02AD029D023D022D015D014D013D041
:1000400008951DD01CD01BD01FD01ED00CD00BD0BB
:100050000AD0089514D013D017D016D015D003D0DD
:1000600002D001D008953FE74FE752E3320FF1F796
:10007000420F0000D9F7520F0000C1F708950BD0CE
:10008000F2DF0BD0F0DF089506D0EDDFECDFEBDF21
:0E00900004D0E9DF089505B9089515B9089563
:00000001FF
